{
  "contractName": "DMusic",
  "abi": [
    {
      "constant": true,
      "inputs": [
        {
          "name": "",
          "type": "address"
        }
      ],
      "name": "artistToToken",
      "outputs": [
        {
          "name": "",
          "type": "address"
        }
      ],
      "payable": false,
      "stateMutability": "view",
      "type": "function",
      "signature": "0x000678de"
    },
    {
      "constant": true,
      "inputs": [],
      "name": "songsId",
      "outputs": [
        {
          "name": "",
          "type": "uint256"
        }
      ],
      "payable": false,
      "stateMutability": "view",
      "type": "function",
      "signature": "0x28153762"
    },
    {
      "constant": true,
      "inputs": [
        {
          "name": "",
          "type": "address"
        },
        {
          "name": "",
          "type": "uint256"
        }
      ],
      "name": "artistToSongs",
      "outputs": [
        {
          "name": "",
          "type": "uint256"
        }
      ],
      "payable": false,
      "stateMutability": "view",
      "type": "function",
      "signature": "0x61b39f49"
    },
    {
      "constant": true,
      "inputs": [
        {
          "name": "",
          "type": "address"
        },
        {
          "name": "",
          "type": "uint256"
        }
      ],
      "name": "userToSongs",
      "outputs": [
        {
          "name": "",
          "type": "uint256"
        }
      ],
      "payable": false,
      "stateMutability": "view",
      "type": "function",
      "signature": "0x8d433c1f"
    },
    {
      "constant": true,
      "inputs": [
        {
          "name": "",
          "type": "uint256"
        }
      ],
      "name": "songsIdToSong",
      "outputs": [
        {
          "name": "ipfsHash",
          "type": "string"
        },
        {
          "name": "price",
          "type": "uint256"
        },
        {
          "name": "owner",
          "type": "address"
        },
        {
          "name": "isAvailable",
          "type": "bool"
        }
      ],
      "payable": false,
      "stateMutability": "view",
      "type": "function",
      "signature": "0xe388f6d5"
    },
    {
      "constant": true,
      "inputs": [
        {
          "name": "",
          "type": "uint256"
        },
        {
          "name": "",
          "type": "uint256"
        }
      ],
      "name": "songToUsers",
      "outputs": [
        {
          "name": "",
          "type": "address"
        }
      ],
      "payable": false,
      "stateMutability": "view",
      "type": "function",
      "signature": "0xf12576f2"
    },
    {
      "anonymous": false,
      "inputs": [
        {
          "indexed": false,
          "name": "songsId",
          "type": "uint256"
        },
        {
          "indexed": false,
          "name": "artist",
          "type": "address"
        }
      ],
      "name": "songAdded",
      "type": "event",
      "signature": "0x536076024612cc188ca2392dacb330bc88eb3a6e0e5280d87b885ea2247e6434"
    },
    {
      "anonymous": false,
      "inputs": [
        {
          "indexed": false,
          "name": "songsId",
          "type": "uint256"
        },
        {
          "indexed": false,
          "name": "user",
          "type": "address"
        }
      ],
      "name": "songBought",
      "type": "event",
      "signature": "0xc3eb39e23e907688277dc5cb5ec9e201b2c74394001006c44d856e38baa490ff"
    },
    {
      "anonymous": false,
      "inputs": [
        {
          "indexed": false,
          "name": "artist",
          "type": "address"
        },
        {
          "indexed": false,
          "name": "token",
          "type": "address"
        }
      ],
      "name": "tokenGenerated",
      "type": "event",
      "signature": "0x98989f7ab43922554175822425a9b3dbdb43a85560ce19e049594d2360b4ce06"
    },
    {
      "constant": false,
      "inputs": [
        {
          "name": "mIpfsHash",
          "type": "string"
        },
        {
          "name": "mPrice",
          "type": "uint256"
        }
      ],
      "name": "addSong",
      "outputs": [],
      "payable": false,
      "stateMutability": "nonpayable",
      "type": "function",
      "signature": "0x0f110530"
    },
    {
      "constant": false,
      "inputs": [
        {
          "name": "mSongsId",
          "type": "uint256"
        }
      ],
      "name": "buySong",
      "outputs": [],
      "payable": true,
      "stateMutability": "payable",
      "type": "function",
      "signature": "0x606a0175"
    },
    {
      "constant": false,
      "inputs": [
        {
          "name": "tokenName",
          "type": "string"
        },
        {
          "name": "tokenSymbol",
          "type": "string"
        },
        {
          "name": "decimals",
          "type": "uint8"
        }
      ],
      "name": "generateTokenForArtist",
      "outputs": [
        {
          "name": "",
          "type": "address"
        }
      ],
      "payable": false,
      "stateMutability": "nonpayable",
      "type": "function",
      "signature": "0xa0de4e2c"
    }
  ],
  "bytecode": "0x608060405234801561001057600080fd5b506126d4806100206000396000f3fe608060405260043610610098576000357c0100000000000000000000000000000000000000000000000000000000900463ffffffff1680620678de1461009d5780630f1105301461012e5780632815376214610200578063606a01751461022b57806361b39f49146102595780638d433c1f146102c8578063a0de4e2c14610337578063e388f6d5146104e3578063f12576f2146105dc575b600080fd5b3480156100a957600080fd5b506100ec600480360360208110156100c057600080fd5b81019080803573ffffffffffffffffffffffffffffffffffffffff169060200190929190505050610661565b604051808273ffffffffffffffffffffffffffffffffffffffff1673ffffffffffffffffffffffffffffffffffffffff16815260200191505060405180910390f35b34801561013a57600080fd5b506101fe6004803603604081101561015157600080fd5b810190808035906020019064010000000081111561016e57600080fd5b82018360208201111561018057600080fd5b803590602001918460018302840111640100000000831117156101a257600080fd5b91908080601f016020809104026020016040519081016040528093929190818152602001838380828437600081840152601f19601f82011690508083019250505050505050919291929080359060200190929190505050610694565b005b34801561020c57600080fd5b50610215610869565b6040518082815260200191505060405180910390f35b6102576004803603602081101561024157600080fd5b810190808035906020019092919050505061086f565b005b34801561026557600080fd5b506102b26004803603604081101561027c57600080fd5b81019080803573ffffffffffffffffffffffffffffffffffffffff16906020019092919080359060200190929190505050610c3b565b6040518082815260200191505060405180910390f35b3480156102d457600080fd5b50610321600480360360408110156102eb57600080fd5b81019080803573ffffffffffffffffffffffffffffffffffffffff16906020019092919080359060200190929190505050610c6b565b6040518082815260200191505060405180910390f35b34801561034357600080fd5b506104a16004803603606081101561035a57600080fd5b810190808035906020019064010000000081111561037757600080fd5b82018360208201111561038957600080fd5b803590602001918460018302840111640100000000831117156103ab57600080fd5b91908080601f016020809104026020016040519081016040528093929190818152602001838380828437600081840152601f19601f8201169050808301925050505050505091929192908035906020019064010000000081111561040e57600080fd5b82018360208201111561042057600080fd5b8035906020019184600183028401116401000000008311171561044257600080fd5b91908080601f016020809104026020016040519081016040528093929190818152602001838380828437600081840152601f19601f820116905080830192505050505050509192919290803560ff169060200190929190505050610c9b565b604051808273ffffffffffffffffffffffffffffffffffffffff1673ffffffffffffffffffffffffffffffffffffffff16815260200191505060405180910390f35b3480156104ef57600080fd5b5061051c6004803603602081101561050657600080fd5b8101908080359060200190929190505050611003565b60405180806020018581526020018473ffffffffffffffffffffffffffffffffffffffff1673ffffffffffffffffffffffffffffffffffffffff16815260200183151515158152602001828103825286818151815260200191508051906020019080838360005b8381101561059e578082015181840152602081019050610583565b50505050905090810190601f1680156105cb5780820380516001836020036101000a031916815260200191505b509550505050505060405180910390f35b3480156105e857600080fd5b5061061f600480360360408110156105ff57600080fd5b8101908080359060200190929190803590602001909291905050506110f8565b604051808273ffffffffffffffffffffffffffffffffffffffff1673ffffffffffffffffffffffffffffffffffffffff16815260200191505060405180910390f35b60056020528060005260406000206000915054906101000a900473ffffffffffffffffffffffffffffffffffffffff1681565b61069c611190565b6080604051908101604052808481526020018381526020013373ffffffffffffffffffffffffffffffffffffffff168152602001600115158152509050806001600080548152602001908152602001600020600082015181600001908051906020019061070a9291906111d1565b506020820151816001015560408201518160020160006101000a81548173ffffffffffffffffffffffffffffffffffffffff021916908373ffffffffffffffffffffffffffffffffffffffff16021790555060608201518160020160146101000a81548160ff021916908315150217905550905050600260003373ffffffffffffffffffffffffffffffffffffffff1673ffffffffffffffffffffffffffffffffffffffff16815260200190815260200160002060005490806001815401808255809150509060018203906000526020600020016000909192909190915055507f536076024612cc188ca2392dacb330bc88eb3a6e0e5280d87b885ea2247e64346000808154809291906001019190505533604051808381526020018273ffffffffffffffffffffffffffffffffffffffff1673ffffffffffffffffffffffffffffffffffffffff1681526020019250505060405180910390a1505050565b60005481565b610877611190565b6001600083815260200190815260200160002060806040519081016040529081600082018054600181600116156101000203166002900480601f01602080910402602001604051908101604052809291908181526020018280546001816001161561010002031660029004801561092f5780601f106109045761010080835404028352916020019161092f565b820191906000526020600020905b81548152906001019060200180831161091257829003601f168201915b50505050508152602001600182015481526020016002820160009054906101000a900473ffffffffffffffffffffffffffffffffffffffff1673ffffffffffffffffffffffffffffffffffffffff1673ffffffffffffffffffffffffffffffffffffffff1681526020016002820160149054906101000a900460ff16151515158152505090506001151581606001511515141515610a35576040517f08c379a00000000000000000000000000000000000000000000000000000000081526004018080602001828103825260158152602001807f536f6e6720646f6573206e6f742065786973742121000000000000000000000081525060200191505060405180910390fd5b6000816020015190508034141515610adb576040517f08c379a00000000000000000000000000000000000000000000000000000000081526004018080602001828103825260268152602001807f4e6f7420656e6f756768206d6f6e65792c207472616e73616374696f6e20666181526020017f696c65642121000000000000000000000000000000000000000000000000000081525060400191505060405180910390fd5b610ae9826040015134611145565b600360008481526020019081526020016000203390806001815401808255809150509060018203906000526020600020016000909192909190916101000a81548173ffffffffffffffffffffffffffffffffffffffff021916908373ffffffffffffffffffffffffffffffffffffffff16021790555050600460003373ffffffffffffffffffffffffffffffffffffffff1673ffffffffffffffffffffffffffffffffffffffff1681526020019081526020016000208390806001815401808255809150509060018203906000526020600020016000909192909190915055507fc3eb39e23e907688277dc5cb5ec9e201b2c74394001006c44d856e38baa490ff60005433604051808381526020018273ffffffffffffffffffffffffffffffffffffffff1673ffffffffffffffffffffffffffffffffffffffff1681526020019250505060405180910390a1505050565b600260205281600052604060002081815481101515610c5657fe5b90600052602060002001600091509150505481565b600460205281600052604060002081815481101515610c8657fe5b90600052602060002001600091509150505481565b60008073ffffffffffffffffffffffffffffffffffffffff16600560003373ffffffffffffffffffffffffffffffffffffffff1673ffffffffffffffffffffffffffffffffffffffff16815260200190815260200160002060009054906101000a900473ffffffffffffffffffffffffffffffffffffffff1673ffffffffffffffffffffffffffffffffffffffff16141515610dc5576040517f08c379a00000000000000000000000000000000000000000000000000000000081526004018080602001828103825260388152602001807f41727469737420616c72656164792065786973742c2043616e27742067656e6581526020017f7261746520746865206475706c696361746520746f6b656e000000000000000081525060400191505060405180910390fd5b6000848484613a98610dd5611251565b8080602001806020018560ff1660ff168152602001848152602001838103835287818151815260200191508051906020019080838360005b83811015610e28578082015181840152602081019050610e0d565b50505050905090810190601f168015610e555780820380516001836020036101000a031916815260200191505b50838103825286818151815260200191508051906020019080838360005b83811015610e8e578082015181840152602081019050610e73565b50505050905090810190601f168015610ebb5780820380516001836020036101000a031916815260200191505b509650505050505050604051809103906000f080158015610ee0573d6000803e3d6000fd5b50905080600560003373ffffffffffffffffffffffffffffffffffffffff1673ffffffffffffffffffffffffffffffffffffffff16815260200190815260200160002060006101000a81548173ffffffffffffffffffffffffffffffffffffffff021916908373ffffffffffffffffffffffffffffffffffffffff1602179055507f98989f7ab43922554175822425a9b3dbdb43a85560ce19e049594d2360b4ce063382604051808373ffffffffffffffffffffffffffffffffffffffff1673ffffffffffffffffffffffffffffffffffffffff1681526020018273ffffffffffffffffffffffffffffffffffffffff1673ffffffffffffffffffffffffffffffffffffffff1681526020019250505060405180910390a1809150509392505050565b6001602052806000526040600020600091509050806000018054600181600116156101000203166002900480601f0160208091040260200160405190810160405280929190818152602001828054600181600116156101000203166002900480156110af5780601f10611084576101008083540402835291602001916110af565b820191906000526020600020905b81548152906001019060200180831161109257829003601f168201915b5050505050908060010154908060020160009054906101000a900473ffffffffffffffffffffffffffffffffffffffff16908060020160149054906101000a900460ff16905084565b60036020528160005260406000208181548110151561111357fe5b906000526020600020016000915091509054906101000a900473ffffffffffffffffffffffffffffffffffffffff1681565b8173ffffffffffffffffffffffffffffffffffffffff166108fc829081150290604051600060405180830381858888f1935050505015801561118b573d6000803e3d6000fd5b505050565b6080604051908101604052806060815260200160008152602001600073ffffffffffffffffffffffffffffffffffffffff1681526020016000151581525090565b828054600181600116156101000203166002900490600052602060002090601f016020900481019282601f1061121257805160ff1916838001178555611240565b82800160010185558215611240579182015b8281111561123f578251825591602001919060010190611224565b5b50905061124d9190611261565b5090565b6040516114228061128783390190565b61128391905b8082111561127f576000816000905550600101611267565b5090565b9056fe60806040523480156200001157600080fd5b506040516200142238038062001422833981018060405260808110156200003757600080fd5b8101908080516401000000008111156200005057600080fd5b828101905060208101848111156200006757600080fd5b81518560018202830111640100000000821117156200008557600080fd5b50509291906020018051640100000000811115620000a257600080fd5b82810190506020810184811115620000b957600080fd5b8151856001820283011164010000000082111715620000d757600080fd5b5050929190602001805190602001909291908051906020019092919050505083600390805190602001906200010e92919062000154565b5082600490805190602001906200012792919062000154565b5081600560006101000a81548160ff021916908360ff160217905550806002819055505050505062000203565b828054600181600116156101000203166002900490600052602060002090601f016020900481019282601f106200019757805160ff1916838001178555620001c8565b82800160010185558215620001c8579182015b82811115620001c7578251825591602001919060010190620001aa565b5b509050620001d79190620001db565b5090565b6200020091905b80821115620001fc576000816000905550600101620001e2565b5090565b90565b61120f80620002136000396000f3fe6080604052600436106100af576000357c0100000000000000000000000000000000000000000000000000000000900463ffffffff16806306fdde03146100b4578063095ea7b31461014457806318160ddd146101b757806323b872dd146101e2578063313ce5671461027557806339509351146102a657806370a082311461031957806395d89b411461037e578063a457c2d71461040e578063a9059cbb14610481578063dd62ed3e146104f4575b600080fd5b3480156100c057600080fd5b506100c9610579565b6040518080602001828103825283818151815260200191508051906020019080838360005b838110156101095780820151818401526020810190506100ee565b50505050905090810190601f1680156101365780820380516001836020036101000a031916815260200191505b509250505060405180910390f35b34801561015057600080fd5b5061019d6004803603604081101561016757600080fd5b81019080803573ffffffffffffffffffffffffffffffffffffffff1690602001909291908035906020019092919050505061061b565b604051808215151515815260200191505060405180910390f35b3480156101c357600080fd5b506101cc610632565b6040518082815260200191505060405180910390f35b3480156101ee57600080fd5b5061025b6004803603606081101561020557600080fd5b81019080803573ffffffffffffffffffffffffffffffffffffffff169060200190929190803573ffffffffffffffffffffffffffffffffffffffff1690602001909291908035906020019092919050505061063c565b604051808215151515815260200191505060405180910390f35b34801561028157600080fd5b5061028a61074b565b604051808260ff1660ff16815260200191505060405180910390f35b3480156102b257600080fd5b506102ff600480360360408110156102c957600080fd5b81019080803573ffffffffffffffffffffffffffffffffffffffff16906020019092919080359060200190929190505050610762565b604051808215151515815260200191505060405180910390f35b34801561032557600080fd5b506103686004803603602081101561033c57600080fd5b81019080803573ffffffffffffffffffffffffffffffffffffffff169060200190929190505050610807565b6040518082815260200191505060405180910390f35b34801561038a57600080fd5b5061039361084f565b6040518080602001828103825283818151815260200191508051906020019080838360005b838110156103d35780820151818401526020810190506103b8565b50505050905090810190601f1680156104005780820380516001836020036101000a031916815260200191505b509250505060405180910390f35b34801561041a57600080fd5b506104676004803603604081101561043157600080fd5b81019080803573ffffffffffffffffffffffffffffffffffffffff169060200190929190803590602001909291905050506108f1565b604051808215151515815260200191505060405180910390f35b34801561048d57600080fd5b506104da600480360360408110156104a457600080fd5b81019080803573ffffffffffffffffffffffffffffffffffffffff169060200190929190803590602001909291905050506109f4565b604051808215151515815260200191505060405180910390f35b34801561050057600080fd5b506105636004803603604081101561051757600080fd5b81019080803573ffffffffffffffffffffffffffffffffffffffff169060200190929190803573ffffffffffffffffffffffffffffffffffffffff169060200190929190505050610a0b565b6040518082815260200191505060405180910390f35b606060038054600181600116156101000203166002900480601f0160208091040260200160405190810160405280929190818152602001828054600181600116156101000203166002900480156106115780601f106105e657610100808354040283529160200191610611565b820191906000526020600020905b8154815290600101906020018083116105f457829003601f168201915b5050505050905090565b6000610628338484610a92565b6001905092915050565b6000600254905090565b6000610649848484610d13565b610740843361073b85606060405190810160405280602881526020017f45524332303a207472616e7366657220616d6f756e742065786365656473206181526020017f6c6c6f77616e6365000000000000000000000000000000000000000000000000815250600160008b73ffffffffffffffffffffffffffffffffffffffff1673ffffffffffffffffffffffffffffffffffffffff16815260200190815260200160002060003373ffffffffffffffffffffffffffffffffffffffff1673ffffffffffffffffffffffffffffffffffffffff168152602001908152602001600020546110979092919063ffffffff16565b610a92565b600190509392505050565b6000600560009054906101000a900460ff16905090565b60006107fd33846107f885600160003373ffffffffffffffffffffffffffffffffffffffff1673ffffffffffffffffffffffffffffffffffffffff16815260200190815260200160002060008973ffffffffffffffffffffffffffffffffffffffff1673ffffffffffffffffffffffffffffffffffffffff1681526020019081526020016000205461115990919063ffffffff16565b610a92565b6001905092915050565b60008060008373ffffffffffffffffffffffffffffffffffffffff1673ffffffffffffffffffffffffffffffffffffffff168152602001908152602001600020549050919050565b606060048054600181600116156101000203166002900480601f0160208091040260200160405190810160405280929190818152602001828054600181600116156101000203166002900480156108e75780601f106108bc576101008083540402835291602001916108e7565b820191906000526020600020905b8154815290600101906020018083116108ca57829003601f168201915b5050505050905090565b60006109ea33846109e585606060405190810160405280602581526020017f45524332303a2064656372656173656420616c6c6f77616e63652062656c6f7781526020017f207a65726f000000000000000000000000000000000000000000000000000000815250600160003373ffffffffffffffffffffffffffffffffffffffff1673ffffffffffffffffffffffffffffffffffffffff16815260200190815260200160002060008a73ffffffffffffffffffffffffffffffffffffffff1673ffffffffffffffffffffffffffffffffffffffff168152602001908152602001600020546110979092919063ffffffff16565b610a92565b6001905092915050565b6000610a01338484610d13565b6001905092915050565b6000600160008473ffffffffffffffffffffffffffffffffffffffff1673ffffffffffffffffffffffffffffffffffffffff16815260200190815260200160002060008373ffffffffffffffffffffffffffffffffffffffff1673ffffffffffffffffffffffffffffffffffffffff16815260200190815260200160002054905092915050565b600073ffffffffffffffffffffffffffffffffffffffff168373ffffffffffffffffffffffffffffffffffffffff1614151515610b5d576040517f08c379a00000000000000000000000000000000000000000000000000000000081526004018080602001828103825260248152602001807f45524332303a20617070726f76652066726f6d20746865207a65726f2061646481526020017f726573730000000000000000000000000000000000000000000000000000000081525060400191505060405180910390fd5b600073ffffffffffffffffffffffffffffffffffffffff168273ffffffffffffffffffffffffffffffffffffffff1614151515610c28576040517f08c379a00000000000000000000000000000000000000000000000000000000081526004018080602001828103825260228152602001807f45524332303a20617070726f766520746f20746865207a65726f20616464726581526020017f737300000000000000000000000000000000000000000000000000000000000081525060400191505060405180910390fd5b80600160008573ffffffffffffffffffffffffffffffffffffffff1673ffffffffffffffffffffffffffffffffffffffff16815260200190815260200160002060008473ffffffffffffffffffffffffffffffffffffffff1673ffffffffffffffffffffffffffffffffffffffff168152602001908152602001600020819055508173ffffffffffffffffffffffffffffffffffffffff168373ffffffffffffffffffffffffffffffffffffffff167f8c5be1e5ebec7d5bd14f71427d1e84f3dd0314c0f7b2291e5b200ac8c7c3b925836040518082815260200191505060405180910390a3505050565b600073ffffffffffffffffffffffffffffffffffffffff168373ffffffffffffffffffffffffffffffffffffffff1614151515610dde576040517f08c379a00000000000000000000000000000000000000000000000000000000081526004018080602001828103825260258152602001807f45524332303a207472616e736665722066726f6d20746865207a65726f20616481526020017f647265737300000000000000000000000000000000000000000000000000000081525060400191505060405180910390fd5b600073ffffffffffffffffffffffffffffffffffffffff168273ffffffffffffffffffffffffffffffffffffffff1614151515610ea9576040517f08c379a00000000000000000000000000000000000000000000000000000000081526004018080602001828103825260238152602001807f45524332303a207472616e7366657220746f20746865207a65726f206164647281526020017f657373000000000000000000000000000000000000000000000000000000000081525060400191505060405180910390fd5b610f5881606060405190810160405280602681526020017f45524332303a207472616e7366657220616d6f756e742065786365656473206281526020017f616c616e636500000000000000000000000000000000000000000000000000008152506000808773ffffffffffffffffffffffffffffffffffffffff1673ffffffffffffffffffffffffffffffffffffffff168152602001908152602001600020546110979092919063ffffffff16565b6000808573ffffffffffffffffffffffffffffffffffffffff1673ffffffffffffffffffffffffffffffffffffffff16815260200190815260200160002081905550610feb816000808573ffffffffffffffffffffffffffffffffffffffff1673ffffffffffffffffffffffffffffffffffffffff1681526020019081526020016000205461115990919063ffffffff16565b6000808473ffffffffffffffffffffffffffffffffffffffff1673ffffffffffffffffffffffffffffffffffffffff168152602001908152602001600020819055508173ffffffffffffffffffffffffffffffffffffffff168373ffffffffffffffffffffffffffffffffffffffff167fddf252ad1be2c89b69c2b068fc378daa952ba7f163c4a11628f55a4df523b3ef836040518082815260200191505060405180910390a3505050565b60008383111582901515611146576040517f08c379a00000000000000000000000000000000000000000000000000000000081526004018080602001828103825283818151815260200191508051906020019080838360005b8381101561110b5780820151818401526020810190506110f0565b50505050905090810190601f1680156111385780820380516001836020036101000a031916815260200191505b509250505060405180910390fd5b5060008385039050809150509392505050565b60008082840190508381101515156111d9576040517f08c379a000000000000000000000000000000000000000000000000000000000815260040180806020018281038252601b8152602001807f536166654d6174683a206164646974696f6e206f766572666c6f77000000000081525060200191505060405180910390fd5b809150509291505056fea165627a7a7230582026d68d0b7d53e142d53dc66fbda78ab062bcecc2224ad0946ef63ca920b5760c0029a165627a7a72305820d5336fc64d80e435880d0fc3d4627f8526fe99378daa8fe2736830487e1698e20029",
  "source": "pragma solidity ^0.5.0;\n\nimport \"./ERC20.sol\";\n\ncontract DMusic {\n    // structure of a song added\n    struct Song {\n        string ipfsHash;\n        uint256 price;\n        address owner;\n        bool isAvailable;\n    }\n    // Id given to particular song\n    uint256 public songsId;\n    // mapping of songsId to Song struct\n    mapping(uint256 => Song) public songsIdToSong;\n    // mapping of artist address to songs\n    mapping(address => uint256[]) public artistToSongs;\n    //mapping of Song to Users\n    mapping(uint256 => address[]) public songToUsers;\n    //mapping of user to songs \n    mapping(address => uint256[]) public userToSongs;\n    //mapping of artist with tokens\n    mapping(address => address) public artistToToken;\n    //event when the song is added\n    event songAdded(uint256 songsId,address artist);\n    //event when the song is bought\n    event songBought(uint256 songsId,address user);\n    //event when the erc20 is generated\n    event tokenGenerated(address artist, address token);\n    \n    function addSong(string memory mIpfsHash, uint256  mPrice) public\n    {\n        Song memory song = Song({\n            ipfsHash:mIpfsHash,\n            price: mPrice,\n            owner: msg.sender,\n            isAvailable: true\n        });\n        \n        songsIdToSong[songsId] = song;\n        artistToSongs[msg.sender].push(songsId);\n        \n        emit songAdded(songsId++,msg.sender);\n    }\n    \n    function buySong(uint256  mSongsId) public payable\n    {\n        \n        Song memory song = songsIdToSong[mSongsId];\n        require(song.isAvailable == true, \"Song does not exist!!\");\n        uint256  price = song.price;\n        \n        require(msg.value == price, \"Not enough money, transaction failed!!\");\n        \n        _sendFunds(song.owner,msg.value);\n        \n        songToUsers[mSongsId].push(msg.sender);\n        userToSongs[msg.sender].push(mSongsId);\n        \n        emit songBought(songsId, msg.sender);\n        \n    }\n    \n    function generateTokenForArtist(string memory tokenName,string memory tokenSymbol,uint8 decimals) public returns (address)\n    {\n        require(artistToToken[msg.sender] == address(0), \"Artist already exist, Can't generate the duplicate token\");\n\n        \n        address tokenAddress = address(new ERC20(tokenName,tokenSymbol,decimals,15000));\n        artistToToken[msg.sender] = tokenAddress;\n        \n        emit tokenGenerated(msg.sender,tokenAddress);\n        \n        return tokenAddress;\n        \n        \n    }\n    \n    function _sendFunds(address beneficiary,uint256 value) internal\n    {\n        address(uint160(beneficiary)).transfer(value);\n    }\n    \n    \n}",
  "sourcePath": "/Users/miraj/Desktop/ethIndia/contracts/DMusic.sol",
  "compiler": {
    "name": "solc",
    "version": "0.5.0+commit.1d4f565a.Emscripten.clang"
  },
  "schemaVersion": "3.0.6",
  "updatedAt": "2019-08-03T17:31:59.724Z",
  "devdoc": {
    "methods": {}
  },
  "userdoc": {
    "methods": {}
  }
}