{
  "contractName": "DMusic",
  "abi": [
    {
      "constant": true,
      "inputs": [
        {
          "name": "",
          "type": "address"
        }
      ],
      "name": "artistToToken",
      "outputs": [
        {
          "name": "",
          "type": "address"
        }
      ],
      "payable": false,
      "stateMutability": "view",
      "type": "function",
      "signature": "0x000678de"
    },
    {
      "constant": true,
      "inputs": [
        {
          "name": "",
          "type": "address"
        }
      ],
      "name": "balances",
      "outputs": [
        {
          "name": "",
          "type": "uint256"
        }
      ],
      "payable": false,
      "stateMutability": "view",
      "type": "function",
      "signature": "0x27e235e3"
    },
    {
      "constant": true,
      "inputs": [],
      "name": "songsId",
      "outputs": [
        {
          "name": "",
          "type": "uint256"
        }
      ],
      "payable": false,
      "stateMutability": "view",
      "type": "function",
      "signature": "0x28153762"
    },
    {
      "constant": true,
      "inputs": [
        {
          "name": "",
          "type": "address"
        },
        {
          "name": "",
          "type": "uint256"
        }
      ],
      "name": "artistToSongs",
      "outputs": [
        {
          "name": "",
          "type": "uint256"
        }
      ],
      "payable": false,
      "stateMutability": "view",
      "type": "function",
      "signature": "0x61b39f49"
    },
    {
      "constant": true,
      "inputs": [],
      "name": "erc20",
      "outputs": [
        {
          "name": "",
          "type": "address"
        }
      ],
      "payable": false,
      "stateMutability": "view",
      "type": "function",
      "signature": "0x785e9e86"
    },
    {
      "constant": true,
      "inputs": [
        {
          "name": "",
          "type": "address"
        },
        {
          "name": "",
          "type": "uint256"
        }
      ],
      "name": "userToSongs",
      "outputs": [
        {
          "name": "",
          "type": "uint256"
        }
      ],
      "payable": false,
      "stateMutability": "view",
      "type": "function",
      "signature": "0x8d433c1f"
    },
    {
      "constant": true,
      "inputs": [
        {
          "name": "",
          "type": "uint256"
        }
      ],
      "name": "songsIdToSong",
      "outputs": [
        {
          "name": "ipfsHash",
          "type": "string"
        },
        {
          "name": "price",
          "type": "uint256"
        },
        {
          "name": "owner",
          "type": "address"
        },
        {
          "name": "isAvailable",
          "type": "bool"
        }
      ],
      "payable": false,
      "stateMutability": "view",
      "type": "function",
      "signature": "0xe388f6d5"
    },
    {
      "constant": true,
      "inputs": [
        {
          "name": "",
          "type": "uint256"
        },
        {
          "name": "",
          "type": "uint256"
        }
      ],
      "name": "songToUsers",
      "outputs": [
        {
          "name": "",
          "type": "address"
        }
      ],
      "payable": false,
      "stateMutability": "view",
      "type": "function",
      "signature": "0xf12576f2"
    },
    {
      "payable": true,
      "stateMutability": "payable",
      "type": "fallback"
    },
    {
      "anonymous": false,
      "inputs": [
        {
          "indexed": false,
          "name": "songsId",
          "type": "uint256"
        },
        {
          "indexed": false,
          "name": "artist",
          "type": "address"
        }
      ],
      "name": "songAdded",
      "type": "event",
      "signature": "0x536076024612cc188ca2392dacb330bc88eb3a6e0e5280d87b885ea2247e6434"
    },
    {
      "anonymous": false,
      "inputs": [
        {
          "indexed": false,
          "name": "songsId",
          "type": "uint256"
        },
        {
          "indexed": false,
          "name": "user",
          "type": "address"
        }
      ],
      "name": "songBought",
      "type": "event",
      "signature": "0xc3eb39e23e907688277dc5cb5ec9e201b2c74394001006c44d856e38baa490ff"
    },
    {
      "anonymous": false,
      "inputs": [
        {
          "indexed": false,
          "name": "artist",
          "type": "address"
        },
        {
          "indexed": false,
          "name": "token",
          "type": "address"
        }
      ],
      "name": "tokenGenerated",
      "type": "event",
      "signature": "0x98989f7ab43922554175822425a9b3dbdb43a85560ce19e049594d2360b4ce06"
    },
    {
      "constant": true,
      "inputs": [
        {
          "name": "user",
          "type": "address"
        }
      ],
      "name": "getUserSongs",
      "outputs": [
        {
          "name": "userSongs",
          "type": "uint256[]"
        }
      ],
      "payable": false,
      "stateMutability": "view",
      "type": "function",
      "signature": "0x4b544d68"
    },
    {
      "constant": false,
      "inputs": [
        {
          "name": "mIpfsHash",
          "type": "string"
        },
        {
          "name": "mPrice",
          "type": "uint256"
        }
      ],
      "name": "addSong",
      "outputs": [],
      "payable": false,
      "stateMutability": "nonpayable",
      "type": "function",
      "signature": "0x0f110530"
    },
    {
      "constant": false,
      "inputs": [
        {
          "name": "mSongsId",
          "type": "uint256"
        }
      ],
      "name": "buySong",
      "outputs": [],
      "payable": true,
      "stateMutability": "payable",
      "type": "function",
      "signature": "0x606a0175"
    },
    {
      "constant": false,
      "inputs": [
        {
          "name": "amount",
          "type": "uint256"
        }
      ],
      "name": "withdraw",
      "outputs": [],
      "payable": false,
      "stateMutability": "nonpayable",
      "type": "function",
      "signature": "0x2e1a7d4d"
    }
  ],
  "bytecode": "0x608060405234801561001057600080fd5b5061320a806100206000396000f3fe608060405260043610620000c6576000357c0100000000000000000000000000000000000000000000000000000000900463ffffffff1680620678de14620000cb5780630f110530146200016057806327e235e314620002395780632815376214620002a25780632e1a7d4d14620002d05780634b544d68146200030f578063606a017514620003bb57806361b39f4914620003ec578063785e9e86146200045f5780638d433c1f14620004b9578063e388f6d5146200052c578063f12576f2146200062c575b600080fd5b348015620000d857600080fd5b506200011e60048036036020811015620000f157600080fd5b81019080803573ffffffffffffffffffffffffffffffffffffffff169060200190929190505050620006b5565b604051808273ffffffffffffffffffffffffffffffffffffffff1673ffffffffffffffffffffffffffffffffffffffff16815260200191505060405180910390f35b3480156200016d57600080fd5b5062000237600480360360408110156200018657600080fd5b8101908080359060200190640100000000811115620001a457600080fd5b820183602082011115620001b757600080fd5b80359060200191846001830284011164010000000083111715620001da57600080fd5b91908080601f016020809104026020016040519081016040528093929190818152602001838380828437600081840152601f19601f82011690508083019250505050505050919291929080359060200190929190505050620006e8565b005b3480156200024657600080fd5b506200028c600480360360208110156200025f57600080fd5b81019080803573ffffffffffffffffffffffffffffffffffffffff16906020019092919050505062000962565b6040518082815260200191505060405180910390f35b348015620002af57600080fd5b50620002ba6200097a565b6040518082815260200191505060405180910390f35b348015620002dd57600080fd5b506200030d60048036036020811015620002f657600080fd5b810190808035906020019092919050505062000980565b005b3480156200031c57600080fd5b5062000362600480360360208110156200033557600080fd5b81019080803573ffffffffffffffffffffffffffffffffffffffff16906020019092919050505062000a93565b6040518080602001828103825283818151815260200191508051906020019060200280838360005b83811015620003a75780820151818401526020810190506200038a565b505050509050019250505060405180910390f35b620003ea60048036036020811015620003d357600080fd5b810190808035906020019092919050505062000be7565b005b348015620003f957600080fd5b5062000449600480360360408110156200041257600080fd5b81019080803573ffffffffffffffffffffffffffffffffffffffff1690602001909291908035906020019092919050505062001183565b6040518082815260200191505060405180910390f35b3480156200046c57600080fd5b5062000477620011b4565b604051808273ffffffffffffffffffffffffffffffffffffffff1673ffffffffffffffffffffffffffffffffffffffff16815260200191505060405180910390f35b348015620004c657600080fd5b506200051660048036036040811015620004df57600080fd5b81019080803573ffffffffffffffffffffffffffffffffffffffff16906020019092919080359060200190929190505050620011da565b6040518082815260200191505060405180910390f35b3480156200053957600080fd5b5062000569600480360360208110156200055257600080fd5b81019080803590602001909291905050506200120b565b60405180806020018581526020018473ffffffffffffffffffffffffffffffffffffffff1673ffffffffffffffffffffffffffffffffffffffff16815260200183151515158152602001828103825286818151815260200191508051906020019080838360005b83811015620005ed578082015181840152602081019050620005d0565b50505050905090810190601f1680156200061b5780820380516001836020036101000a031916815260200191505b509550505050505060405180910390f35b3480156200063957600080fd5b5062000673600480360360408110156200065257600080fd5b81019080803590602001909291908035906020019092919050505062001304565b604051808273ffffffffffffffffffffffffffffffffffffffff1673ffffffffffffffffffffffffffffffffffffffff16815260200191505060405180910390f35b60056020528060005260406000206000915054906101000a900473ffffffffffffffffffffffffffffffffffffffff1681565b600073ffffffffffffffffffffffffffffffffffffffff16600560003373ffffffffffffffffffffffffffffffffffffffff1673ffffffffffffffffffffffffffffffffffffffff16815260200190815260200160002060009054906101000a900473ffffffffffffffffffffffffffffffffffffffff1673ffffffffffffffffffffffffffffffffffffffff16141562000789576200078762001352565b505b62000793620015eb565b6080604051908101604052808481526020018381526020013373ffffffffffffffffffffffffffffffffffffffff1681526020016001151581525090508060016000805481526020019081526020016000206000820151816000019080519060200190620008039291906200162c565b506020820151816001015560408201518160020160006101000a81548173ffffffffffffffffffffffffffffffffffffffff021916908373ffffffffffffffffffffffffffffffffffffffff16021790555060608201518160020160146101000a81548160ff021916908315150217905550905050600260003373ffffffffffffffffffffffffffffffffffffffff1673ffffffffffffffffffffffffffffffffffffffff16815260200190815260200160002060005490806001815401808255809150509060018203906000526020600020016000909192909190915055507f536076024612cc188ca2392dacb330bc88eb3a6e0e5280d87b885ea2247e64346000808154809291906001019190505533604051808381526020018273ffffffffffffffffffffffffffffffffffffffff1673ffffffffffffffffffffffffffffffffffffffff1681526020019250505060405180910390a1505050565b60066020528060005260406000206000915090505481565b60005481565b80600660003373ffffffffffffffffffffffffffffffffffffffff1673ffffffffffffffffffffffffffffffffffffffff1681526020019081526020016000205411151562000a37576040517f08c379a000000000000000000000000000000000000000000000000000000000815260040180806020018281038252601a8152602001807f62616c616e6365206973206e6f742073756666696369656e742100000000000081525060200191505060405180910390fd5b62000a4333826200155b565b80600660003373ffffffffffffffffffffffffffffffffffffffff1673ffffffffffffffffffffffffffffffffffffffff1681526020019081526020016000206000828254039250508190555050565b6060600460008373ffffffffffffffffffffffffffffffffffffffff1673ffffffffffffffffffffffffffffffffffffffff1681526020019081526020016000208054905060405190808252806020026020018201604052801562000b075781602001602082028038833980820191505090505b50905060008090505b600460008473ffffffffffffffffffffffffffffffffffffffff1673ffffffffffffffffffffffffffffffffffffffff1681526020019081526020016000208054905081101562000bde57600460008473ffffffffffffffffffffffffffffffffffffffff1673ffffffffffffffffffffffffffffffffffffffff1681526020019081526020016000208181548110151562000ba857fe5b9060005260206000200154828281518110151562000bc257fe5b9060200190602002018181525050808060010191505062000b10565b50809050919050565b62000bf1620015eb565b6001600083815260200190815260200160002060806040519081016040529081600082018054600181600116156101000203166002900480601f01602080910402602001604051908101604052809291908181526020018280546001816001161561010002031660029004801562000cad5780601f1062000c815761010080835404028352916020019162000cad565b820191906000526020600020905b81548152906001019060200180831162000c8f57829003601f168201915b50505050508152602001600182015481526020016002820160009054906101000a900473ffffffffffffffffffffffffffffffffffffffff1673ffffffffffffffffffffffffffffffffffffffff1673ffffffffffffffffffffffffffffffffffffffff1681526020016002820160149054906101000a900460ff1615151515815250509050600115158160600151151514151562000db4576040517f08c379a00000000000000000000000000000000000000000000000000000000081526004018080602001828103825260158152602001807f536f6e6720646f6573206e6f742065786973742121000000000000000000000081525060200191505060405180910390fd5b60008160200151905080341015151562000e5c576040517f08c379a00000000000000000000000000000000000000000000000000000000081526004018080602001828103825260268152602001807f4e6f7420656e6f756768206d6f6e65792c207472616e73616374696f6e20666181526020017f696c65642121000000000000000000000000000000000000000000000000000081525060400191505060405180910390fd5b3460066000846040015173ffffffffffffffffffffffffffffffffffffffff1673ffffffffffffffffffffffffffffffffffffffff16815260200190815260200160002060008282540192505081905550600360008481526020019081526020016000203390806001815401808255809150509060018203906000526020600020016000909192909190916101000a81548173ffffffffffffffffffffffffffffffffffffffff021916908373ffffffffffffffffffffffffffffffffffffffff16021790555050600460003373ffffffffffffffffffffffffffffffffffffffff1673ffffffffffffffffffffffffffffffffffffffff168152602001908152602001600020839080600181540180825580915050906001820390600052602060002001600090919290919091505550600060056000846040015173ffffffffffffffffffffffffffffffffffffffff1673ffffffffffffffffffffffffffffffffffffffff16815260200190815260200160002060009054906101000a900473ffffffffffffffffffffffffffffffffffffffff1690506200100081620015a7565b600760009054906101000a900473ffffffffffffffffffffffffffffffffffffffff1673ffffffffffffffffffffffffffffffffffffffff1663a9059cbb3360146040518363ffffffff167c0100000000000000000000000000000000000000000000000000000000028152600401808373ffffffffffffffffffffffffffffffffffffffff1673ffffffffffffffffffffffffffffffffffffffff16815260200182815260200192505050602060405180830381600087803b158015620010c757600080fd5b505af1158015620010dc573d6000803e3d6000fd5b505050506040513d6020811015620010f357600080fd5b810190808051906020019092919050505015156200111057600080fd5b7fc3eb39e23e907688277dc5cb5ec9e201b2c74394001006c44d856e38baa490ff60005433604051808381526020018273ffffffffffffffffffffffffffffffffffffffff1673ffffffffffffffffffffffffffffffffffffffff1681526020019250505060405180910390a150505050565b6002602052816000526040600020818154811015156200119f57fe5b90600052602060002001600091509150505481565b600760009054906101000a900473ffffffffffffffffffffffffffffffffffffffff1681565b600460205281600052604060002081815481101515620011f657fe5b90600052602060002001600091509150505481565b6001602052806000526040600020600091509050806000018054600181600116156101000203166002900480601f016020809104026020016040519081016040528092919081815260200182805460018160011615610100020316600290048015620012bb5780601f106200128f57610100808354040283529160200191620012bb565b820191906000526020600020905b8154815290600101906020018083116200129d57829003601f168201915b5050505050908060010154908060020160009054906101000a900473ffffffffffffffffffffffffffffffffffffffff16908060020160149054906101000a900460ff16905084565b6003602052816000526040600020818154811015156200132057fe5b906000526020600020016000915091509054906101000a900473ffffffffffffffffffffffffffffffffffffffff1681565b60008060123062001362620016b3565b8080602001806020018560ff1681526020018473ffffffffffffffffffffffffffffffffffffffff1673ffffffffffffffffffffffffffffffffffffffff168152602001838103835260058152602001807f544f4b454e000000000000000000000000000000000000000000000000000000815250602001838103825260038152602001807f544b4e0000000000000000000000000000000000000000000000000000000000815250602001945050505050604051809103906000f08015801562001431573d6000803e3d6000fd5b50905080600560003373ffffffffffffffffffffffffffffffffffffffff1673ffffffffffffffffffffffffffffffffffffffff16815260200190815260200160002060006101000a81548173ffffffffffffffffffffffffffffffffffffffff021916908373ffffffffffffffffffffffffffffffffffffffff1602179055507f98989f7ab43922554175822425a9b3dbdb43a85560ce19e049594d2360b4ce063382604051808373ffffffffffffffffffffffffffffffffffffffff1673ffffffffffffffffffffffffffffffffffffffff1681526020018273ffffffffffffffffffffffffffffffffffffffff1673ffffffffffffffffffffffffffffffffffffffff1681526020019250505060405180910390a16200155481620015a7565b8091505090565b8173ffffffffffffffffffffffffffffffffffffffff166108fc829081150290604051600060405180830381858888f19350505050158015620015a2573d6000803e3d6000fd5b505050565b80600760006101000a81548173ffffffffffffffffffffffffffffffffffffffff021916908373ffffffffffffffffffffffffffffffffffffffff16021790555050565b6080604051908101604052806060815260200160008152602001600073ffffffffffffffffffffffffffffffffffffffff1681526020016000151581525090565b828054600181600116156101000203166002900490600052602060002090601f016020900481019282601f106200166f57805160ff1916838001178555620016a0565b82800160010185558215620016a0579182015b828111156200169f57825182559160200191906001019062001682565b5b509050620016af9190620016c4565b5090565b604051611af280620016ed83390190565b620016e991905b80821115620016e5576000816000905550600101620016cb565b5090565b9056fe60806040523480156200001157600080fd5b5060405162001af238038062001af2833981018060405260808110156200003757600080fd5b8101908080516401000000008111156200005057600080fd5b828101905060208101848111156200006757600080fd5b81518560018202830111640100000000821117156200008557600080fd5b50509291906020018051640100000000811115620000a257600080fd5b82810190506020810184811115620000b957600080fd5b8151856001820283011164010000000082111715620000d757600080fd5b505092919060200180519060200190929190805190602001909291905050508080600360006101000a81548173ffffffffffffffffffffffffffffffffffffffff021916908373ffffffffffffffffffffffffffffffffffffffff16021790555050836005908051906020019062000151929190620001f2565b5082600690805190602001906200016a929190620001f2565b5081600760006101000a81548160ff021916908360ff1602179055506b04d8c55aefb8c05b5c000000600081905550600054600260008373ffffffffffffffffffffffffffffffffffffffff1673ffffffffffffffffffffffffffffffffffffffff1681526020019081526020016000206000828254019250508190555050505050620002a1565b828054600181600116156101000203166002900490600052602060002090601f016020900481019282601f106200023557805160ff191683800117855562000266565b8280016001018555821562000266579182015b828111156200026557825182559160200191906001019062000248565b5b50905062000275919062000279565b5090565b6200029e91905b808211156200029a57600081600090555060010162000280565b5090565b90565b61184180620002b16000396000f3fe6080604052600436106100db576000357c0100000000000000000000000000000000000000000000000000000000900463ffffffff16806306fdde03146100e0578063095ea7b31461017057806318160ddd146101e357806323b872dd1461020e578063313ce567146102a157806342966c68146102d257806370a082311461032557806379ba50971461038a5780638da5cb5b146103a15780639281cd65146103f857806395d89b4114610475578063a9059cbb14610505578063d4ee1d9014610578578063dd62ed3e146105cf578063f2fde38b14610654575b600080fd5b3480156100ec57600080fd5b506100f56106a5565b6040518080602001828103825283818151815260200191508051906020019080838360005b8381101561013557808201518184015260208101905061011a565b50505050905090810190601f1680156101625780820380516001836020036101000a031916815260200191505b509250505060405180910390f35b34801561017c57600080fd5b506101c96004803603604081101561019357600080fd5b81019080803573ffffffffffffffffffffffffffffffffffffffff16906020019092919080359060200190929190505050610743565b604051808215151515815260200191505060405180910390f35b3480156101ef57600080fd5b506101f86108e4565b6040518082815260200191505060405180910390f35b34801561021a57600080fd5b506102876004803603606081101561023157600080fd5b81019080803573ffffffffffffffffffffffffffffffffffffffff169060200190929190803573ffffffffffffffffffffffffffffffffffffffff169060200190929190803590602001909291905050506108ea565b604051808215151515815260200191505060405180910390f35b3480156102ad57600080fd5b506102b6610cc3565b604051808260ff1660ff16815260200191505060405180910390f35b3480156102de57600080fd5b5061030b600480360360208110156102f557600080fd5b8101908080359060200190929190505050610cd6565b604051808215151515815260200191505060405180910390f35b34801561033157600080fd5b506103746004803603602081101561034857600080fd5b81019080803573ffffffffffffffffffffffffffffffffffffffff169060200190929190505050610e41565b6040518082815260200191505060405180910390f35b34801561039657600080fd5b5061039f610e8a565b005b3480156103ad57600080fd5b506103b661102b565b604051808273ffffffffffffffffffffffffffffffffffffffff1673ffffffffffffffffffffffffffffffffffffffff16815260200191505060405180910390f35b34801561040457600080fd5b5061045b6004803603606081101561041b57600080fd5b81019080803573ffffffffffffffffffffffffffffffffffffffff1690602001909291908035906020019092919080359060200190929190505050611051565b604051808215151515815260200191505060405180910390f35b34801561048157600080fd5b5061048a6111e7565b6040518080602001828103825283818151815260200191508051906020019080838360005b838110156104ca5780820151818401526020810190506104af565b50505050905090810190601f1680156104f75780820380516001836020036101000a031916815260200191505b509250505060405180910390f35b34801561051157600080fd5b5061055e6004803603604081101561052857600080fd5b81019080803573ffffffffffffffffffffffffffffffffffffffff16906020019092919080359060200190929190505050611285565b604051808215151515815260200191505060405180910390f35b34801561058457600080fd5b5061058d611532565b604051808273ffffffffffffffffffffffffffffffffffffffff1673ffffffffffffffffffffffffffffffffffffffff16815260200191505060405180910390f35b3480156105db57600080fd5b5061063e600480360360408110156105f257600080fd5b81019080803573ffffffffffffffffffffffffffffffffffffffff169060200190929190803573ffffffffffffffffffffffffffffffffffffffff169060200190929190505050611558565b6040518082815260200191505060405180910390f35b34801561066057600080fd5b506106a36004803603602081101561067757600080fd5b81019080803573ffffffffffffffffffffffffffffffffffffffff1690602001909291905050506115df565b005b60068054600181600116156101000203166002900480601f01602080910402602001604051908101604052809291908181526020018280546001816001161561010002031660029004801561073b5780601f106107105761010080835404028352916020019161073b565b820191906000526020600020905b81548152906001019060200180831161071e57829003601f168201915b505050505081565b600060026004602082020160003690501015151561075d57fe5b60008314806107e857506000600160003373ffffffffffffffffffffffffffffffffffffffff1673ffffffffffffffffffffffffffffffffffffffff16815260200190815260200160002060008673ffffffffffffffffffffffffffffffffffffffff1673ffffffffffffffffffffffffffffffffffffffff16815260200190815260200160002054145b15156107f357600080fd5b82600160003373ffffffffffffffffffffffffffffffffffffffff1673ffffffffffffffffffffffffffffffffffffffff16815260200190815260200160002060008673ffffffffffffffffffffffffffffffffffffffff1673ffffffffffffffffffffffffffffffffffffffff168152602001908152602001600020819055508373ffffffffffffffffffffffffffffffffffffffff163373ffffffffffffffffffffffffffffffffffffffff167f8c5be1e5ebec7d5bd14f71427d1e84f3dd0314c0f7b2291e5b200ac8c7c3b925856040518082815260200191505060405180910390a3600191505092915050565b60005481565b600060036004602082020160003690501015151561090457fe5b600073ffffffffffffffffffffffffffffffffffffffff168473ffffffffffffffffffffffffffffffffffffffff161415151561094057600080fd5b600260008673ffffffffffffffffffffffffffffffffffffffff1673ffffffffffffffffffffffffffffffffffffffff16815260200190815260200160002054831115151561098e57600080fd5b600160008673ffffffffffffffffffffffffffffffffffffffff1673ffffffffffffffffffffffffffffffffffffffff16815260200190815260200160002060003373ffffffffffffffffffffffffffffffffffffffff1673ffffffffffffffffffffffffffffffffffffffff168152602001908152602001600020548311151515610a1957600080fd5b610a6b83600260008873ffffffffffffffffffffffffffffffffffffffff1673ffffffffffffffffffffffffffffffffffffffff1681526020019081526020016000205461167f90919063ffffffff16565b600260008773ffffffffffffffffffffffffffffffffffffffff1673ffffffffffffffffffffffffffffffffffffffff16815260200190815260200160002081905550610b0083600260008773ffffffffffffffffffffffffffffffffffffffff1673ffffffffffffffffffffffffffffffffffffffff168152602001908152602001600020546116c990919063ffffffff16565b600260008673ffffffffffffffffffffffffffffffffffffffff1673ffffffffffffffffffffffffffffffffffffffff16815260200190815260200160002081905550610bd283600160008873ffffffffffffffffffffffffffffffffffffffff1673ffffffffffffffffffffffffffffffffffffffff16815260200190815260200160002060003373ffffffffffffffffffffffffffffffffffffffff1673ffffffffffffffffffffffffffffffffffffffff1681526020019081526020016000205461167f90919063ffffffff16565b600160008773ffffffffffffffffffffffffffffffffffffffff1673ffffffffffffffffffffffffffffffffffffffff16815260200190815260200160002060003373ffffffffffffffffffffffffffffffffffffffff1673ffffffffffffffffffffffffffffffffffffffff168152602001908152602001600020819055508373ffffffffffffffffffffffffffffffffffffffff168573ffffffffffffffffffffffffffffffffffffffff167fddf252ad1be2c89b69c2b068fc378daa952ba7f163c4a11628f55a4df523b3ef856040518082815260200191505060405180910390a360019150509392505050565b600760009054906101000a900460ff1681565b60008082111515610ce657600080fd5b600260003373ffffffffffffffffffffffffffffffffffffffff1673ffffffffffffffffffffffffffffffffffffffff168152602001908152602001600020548211151515610d3457600080fd5b6000339050610d8b83600260008473ffffffffffffffffffffffffffffffffffffffff1673ffffffffffffffffffffffffffffffffffffffff1681526020019081526020016000205461167f90919063ffffffff16565b600260008373ffffffffffffffffffffffffffffffffffffffff1673ffffffffffffffffffffffffffffffffffffffff16815260200190815260200160002081905550610de38360005461167f90919063ffffffff16565b6000819055508073ffffffffffffffffffffffffffffffffffffffff167fcc16f5dbb4873280815c1ee09dbd06736cffcc184412cf7a71a0fdb75d397ca5846040518082815260200191505060405180910390a26001915050919050565b6000600260008373ffffffffffffffffffffffffffffffffffffffff1673ffffffffffffffffffffffffffffffffffffffff168152602001908152602001600020549050919050565b600460009054906101000a900473ffffffffffffffffffffffffffffffffffffffff1673ffffffffffffffffffffffffffffffffffffffff163373ffffffffffffffffffffffffffffffffffffffff16141515610ee657600080fd5b600460009054906101000a900473ffffffffffffffffffffffffffffffffffffffff1673ffffffffffffffffffffffffffffffffffffffff16600360009054906101000a900473ffffffffffffffffffffffffffffffffffffffff1673ffffffffffffffffffffffffffffffffffffffff167f8be0079c531659141344cd1fd0a4f28419497f9722a3daafe3b4186f6b6457e060405160405180910390a3600460009054906101000a900473ffffffffffffffffffffffffffffffffffffffff16600360006101000a81548173ffffffffffffffffffffffffffffffffffffffff021916908373ffffffffffffffffffffffffffffffffffffffff1602179055506000600460006101000a81548173ffffffffffffffffffffffffffffffffffffffff021916908373ffffffffffffffffffffffffffffffffffffffff160217905550565b600360009054906101000a900473ffffffffffffffffffffffffffffffffffffffff1681565b600060036004602082020160003690501015151561106b57fe5b83600160003373ffffffffffffffffffffffffffffffffffffffff1673ffffffffffffffffffffffffffffffffffffffff16815260200190815260200160002060008773ffffffffffffffffffffffffffffffffffffffff1673ffffffffffffffffffffffffffffffffffffffff168152602001908152602001600020541415156110f557600080fd5b82600160003373ffffffffffffffffffffffffffffffffffffffff1673ffffffffffffffffffffffffffffffffffffffff16815260200190815260200160002060008773ffffffffffffffffffffffffffffffffffffffff1673ffffffffffffffffffffffffffffffffffffffff168152602001908152602001600020819055508473ffffffffffffffffffffffffffffffffffffffff163373ffffffffffffffffffffffffffffffffffffffff167f8c5be1e5ebec7d5bd14f71427d1e84f3dd0314c0f7b2291e5b200ac8c7c3b925856040518082815260200191505060405180910390a360019150509392505050565b60058054600181600116156101000203166002900480601f01602080910402602001604051908101604052809291908181526020018280546001816001161561010002031660029004801561127d5780601f106112525761010080835404028352916020019161127d565b820191906000526020600020905b81548152906001019060200180831161126057829003601f168201915b505050505081565b600060026004602082020160003690501015151561129f57fe5b82600260003373ffffffffffffffffffffffffffffffffffffffff1673ffffffffffffffffffffffffffffffffffffffff16815260200190815260200160002054101580156112ee5750600083115b80156113895750600260008573ffffffffffffffffffffffffffffffffffffffff1673ffffffffffffffffffffffffffffffffffffffff1681526020019081526020016000205461138784600260008873ffffffffffffffffffffffffffffffffffffffff1673ffffffffffffffffffffffffffffffffffffffff168152602001908152602001600020546116c990919063ffffffff16565b115b15611526576113e083600260003373ffffffffffffffffffffffffffffffffffffffff1673ffffffffffffffffffffffffffffffffffffffff1681526020019081526020016000205461167f90919063ffffffff16565b600260003373ffffffffffffffffffffffffffffffffffffffff1673ffffffffffffffffffffffffffffffffffffffff1681526020019081526020016000208190555061147583600260008773ffffffffffffffffffffffffffffffffffffffff1673ffffffffffffffffffffffffffffffffffffffff168152602001908152602001600020546116c990919063ffffffff16565b600260008673ffffffffffffffffffffffffffffffffffffffff1673ffffffffffffffffffffffffffffffffffffffff168152602001908152602001600020819055508373ffffffffffffffffffffffffffffffffffffffff163373ffffffffffffffffffffffffffffffffffffffff167fddf252ad1be2c89b69c2b068fc378daa952ba7f163c4a11628f55a4df523b3ef856040518082815260200191505060405180910390a36001915061152b565b600091505b5092915050565b600460009054906101000a900473ffffffffffffffffffffffffffffffffffffffff1681565b6000600160008473ffffffffffffffffffffffffffffffffffffffff1673ffffffffffffffffffffffffffffffffffffffff16815260200190815260200160002060008373ffffffffffffffffffffffffffffffffffffffff1673ffffffffffffffffffffffffffffffffffffffff16815260200190815260200160002054905092915050565b600360009054906101000a900473ffffffffffffffffffffffffffffffffffffffff1673ffffffffffffffffffffffffffffffffffffffff163373ffffffffffffffffffffffffffffffffffffffff1614151561163b57600080fd5b80600460006101000a81548173ffffffffffffffffffffffffffffffffffffffff021916908373ffffffffffffffffffffffffffffffffffffffff16021790555050565b60006116c183836040805190810160405280601e81526020017f536166654d6174683a207375627472616374696f6e206f766572666c6f770000815250611753565b905092915050565b6000808284019050838110151515611749576040517f08c379a000000000000000000000000000000000000000000000000000000000815260040180806020018281038252601b8152602001807f536166654d6174683a206164646974696f6e206f766572666c6f77000000000081525060200191505060405180910390fd5b8091505092915050565b60008383111582901515611802576040517f08c379a00000000000000000000000000000000000000000000000000000000081526004018080602001828103825283818151815260200191508051906020019080838360005b838110156117c75780820151818401526020810190506117ac565b50505050905090810190601f1680156117f45780820380516001836020036101000a031916815260200191505b509250505060405180910390fd5b506000838503905080915050939250505056fea165627a7a72305820921c4555bb73ab20a90f472c332214aec66251dcfbdf902f69267fdb0072c2740029a165627a7a723058209d1455c903bde5f88c8c59a355772d1c3736eefafdcb7f5911e0cc15fada87060029",
  "source": "pragma solidity ^0.5.0;\nimport \"./ArtistToken.sol\";\n\n\n\ncontract DMusic {\n    // structure of a song added\n    struct Song {\n        string ipfsHash;\n        uint256 price;\n        address owner;\n        bool isAvailable;\n    }\n    // Id given to particular song\n    uint256 public songsId;\n    // mapping of songsId to Song struct\n    mapping(uint256 => Song) public songsIdToSong;\n    // mapping of artist address to songs\n    mapping(address => uint256[]) public artistToSongs;\n    //mapping of Song to Users\n    mapping(uint256 => address[]) public songToUsers;\n    //mapping of user to songs \n    mapping(address => uint256[]) public userToSongs;\n    //mapping of artist with tokens\n    mapping(address => address) public artistToToken;\n    // balances\n    mapping(address => uint256) public balances;\n    //event when the song is added\n    event songAdded(uint256 songsId,address artist);\n    //event when the song is bought\n    event songBought(uint256 songsId,address user);\n    //event when the erc20 is generated\n    event tokenGenerated(address artist, address token);\n    \n    //Token Instance\n    ArtistToken public erc20;\n\n\n\n    function getUserSongs(address user) public view returns(uint256[] memory userSongs) {\n        userSongs = new uint256[](userToSongs[user].length);\n        for(uint i = 0; i < userToSongs[user].length; i++) {\n            userSongs[i] = userToSongs[user][i];\n        }\n        return userSongs;\n    }\n    \n    function addSong(string memory mIpfsHash, uint256  mPrice) public\n    {\n        // require(artistToToken[msg.sender] == address(0), \"Artist already exist, Can't generate the duplicate token\");\n        if(artistToToken[msg.sender] == address(0)) {\n            generateTokenForArtist();\n        }\n        Song memory song = Song({\n            ipfsHash:mIpfsHash,\n            price: mPrice,\n            owner: msg.sender,\n            isAvailable: true\n        });\n        \n        songsIdToSong[songsId] = song;\n        artistToSongs[msg.sender].push(songsId);\n        \n        emit songAdded(songsId++,msg.sender);\n    }\n    \n    function buySong(uint256  mSongsId) public payable\n    {\n        \n        Song memory song = songsIdToSong[mSongsId];\n        require(song.isAvailable == true, \"Song does not exist!!\");\n        uint256  price = song.price;\n        \n        require(msg.value >= price, \"Not enough money, transaction failed!!\");\n        \n        balances[song.owner]+=msg.value;\n        \n        songToUsers[mSongsId].push(msg.sender);\n        userToSongs[msg.sender].push(mSongsId);\n        \n        address token = artistToToken[song.owner];\n        \n        setExistingContractInstance(token);\n        \n        require(erc20.transfer(msg.sender,20));\n        \n        \n        emit songBought(songsId, msg.sender);\n        \n    }\n    \n    function generateTokenForArtist() private returns (address)\n    {        \n    address tokenAddress = address(new ArtistToken(\"TOKEN\",\"TKN\",18,address(this)));\n        artistToToken[msg.sender] = tokenAddress;\n        emit tokenGenerated(msg.sender,tokenAddress);\n        setExistingContractInstance(tokenAddress);\n        return tokenAddress;\n    }\n    \n    function _sendFunds(address beneficiary,uint256 value) internal\n    {\n       address(uint160(beneficiary)).transfer(value);\n    }\n\n    function withdraw(uint256 amount) public {\n        require(balances[msg.sender]>amount,\"balance is not sufficient!\");\n        _sendFunds(msg.sender,amount);\n        balances[msg.sender]-=amount;\n        \n    }\n    \n    function setExistingContractInstance(address token) internal\n    {\n        erc20 = ArtistToken(token);\n    }\n    \n    function () external payable {\n        revert();\n    }\n    \n    \n}",
  "sourcePath": "/Users/miraj/Desktop/ethIndia/contracts/DMusic.sol",
  "compiler": {
    "name": "solc",
    "version": "0.5.0+commit.1d4f565a.Emscripten.clang"
  },
  "schemaVersion": "3.0.6",
  "updatedAt": "2019-08-04T03:01:58.872Z",
  "devdoc": {
    "methods": {}
  },
  "userdoc": {
    "methods": {}
  }
}